{
  "_format": "hh-sol-artifact-1",
  "contractName": "Vending",
  "sourceName": "contracts/Vending.sol",
  "abi": [
    {
      "inputs": [],
      "stateMutability": "nonpayable",
      "type": "constructor"
    },
    {
      "inputs": [
        {
          "internalType": "address",
          "name": "",
          "type": "address"
        }
      ],
      "name": "balances",
      "outputs": [
        {
          "internalType": "uint256",
          "name": "",
          "type": "uint256"
        }
      ],
      "stateMutability": "view",
      "type": "function"
    },
    {
      "inputs": [],
      "name": "getBalance",
      "outputs": [
        {
          "internalType": "uint256",
          "name": "",
          "type": "uint256"
        }
      ],
      "stateMutability": "view",
      "type": "function"
    },
    {
      "inputs": [],
      "name": "owner",
      "outputs": [
        {
          "internalType": "address",
          "name": "",
          "type": "address"
        }
      ],
      "stateMutability": "view",
      "type": "function"
    },
    {
      "inputs": [],
      "name": "purchase",
      "outputs": [],
      "stateMutability": "payable",
      "type": "function"
    },
    {
      "inputs": [
        {
          "internalType": "uint256",
          "name": "amount",
          "type": "uint256"
        }
      ],
      "name": "restock",
      "outputs": [],
      "stateMutability": "nonpayable",
      "type": "function"
    }
  ],
  "bytecode": "0x608060405234801561001057600080fd5b50336000806101000a81548173ffffffffffffffffffffffffffffffffffffffff021916908373ffffffffffffffffffffffffffffffffffffffff1602179055506103e8600160003073ffffffffffffffffffffffffffffffffffffffff1673ffffffffffffffffffffffffffffffffffffffff16815260200190815260200160002081905550610821806100a66000396000f3fe60806040526004361061004a5760003560e01c806312065fe01461004f57806327e235e31461007a57806364edfbf0146100b75780638da5cb5b146100c1578063c21a702a146100ec575b600080fd5b34801561005b57600080fd5b50610064610115565b6040516100719190610425565b60405180910390f35b34801561008657600080fd5b506100a1600480360381019061009c91906104a3565b61015c565b6040516100ae9190610425565b60405180910390f35b6100bf610174565b005b3480156100cd57600080fd5b506100d6610301565b6040516100e391906104df565b60405180910390f35b3480156100f857600080fd5b50610113600480360381019061010e9190610526565b610325565b005b6000600160003073ffffffffffffffffffffffffffffffffffffffff1673ffffffffffffffffffffffffffffffffffffffff16815260200190815260200160002054905090565b60016020528060005260406000206000915090505481565b6000670de0b6b3a76400003461018a91906105b1565b905060018110156101d0576040517f08c379a00000000000000000000000000000000000000000000000000000000081526004016101c79061063f565b60405180910390fd5b80600160003073ffffffffffffffffffffffffffffffffffffffff1673ffffffffffffffffffffffffffffffffffffffff168152602001908152602001600020541015610252576040517f08c379a0000000000000000000000000000000000000000000000000000000008152600401610249906106d1565b60405180910390fd5b80600160003073ffffffffffffffffffffffffffffffffffffffff1673ffffffffffffffffffffffffffffffffffffffff16815260200190815260200160002060008282546102a191906106f1565b9250508190555080600160003373ffffffffffffffffffffffffffffffffffffffff1673ffffffffffffffffffffffffffffffffffffffff16815260200190815260200160002060008282546102f79190610725565b9250508190555050565b60008054906101000a900473ffffffffffffffffffffffffffffffffffffffff1681565b60008054906101000a900473ffffffffffffffffffffffffffffffffffffffff1673ffffffffffffffffffffffffffffffffffffffff163373ffffffffffffffffffffffffffffffffffffffff16146103b3576040517f08c379a00000000000000000000000000000000000000000000000000000000081526004016103aa906107cb565b60405180910390fd5b80600160003073ffffffffffffffffffffffffffffffffffffffff1673ffffffffffffffffffffffffffffffffffffffff16815260200190815260200160002060008282546104029190610725565b9250508190555050565b6000819050919050565b61041f8161040c565b82525050565b600060208201905061043a6000830184610416565b92915050565b600080fd5b600073ffffffffffffffffffffffffffffffffffffffff82169050919050565b600061047082610445565b9050919050565b61048081610465565b811461048b57600080fd5b50565b60008135905061049d81610477565b92915050565b6000602082840312156104b9576104b8610440565b5b60006104c78482850161048e565b91505092915050565b6104d981610465565b82525050565b60006020820190506104f460008301846104d0565b92915050565b6105038161040c565b811461050e57600080fd5b50565b600081359050610520816104fa565b92915050565b60006020828403121561053c5761053b610440565b5b600061054a84828501610511565b91505092915050565b7f4e487b7100000000000000000000000000000000000000000000000000000000600052601260045260246000fd5b7f4e487b7100000000000000000000000000000000000000000000000000000000600052601160045260246000fd5b60006105bc8261040c565b91506105c78361040c565b9250826105d7576105d6610553565b5b828204905092915050565b600082825260208201905092915050565b7f596f75206d75737420706179206174206c656173742031206574686572000000600082015250565b6000610629601d836105e2565b9150610634826105f3565b602082019050919050565b600060208201905081810360008301526106588161061c565b9050919050565b7f4e6f7420656e6f75676820696e2073746f636b20746f2066756c66696c6c207060008201527f7572636861736520726571756573740000000000000000000000000000000000602082015250565b60006106bb602f836105e2565b91506106c68261065f565b604082019050919050565b600060208201905081810360008301526106ea816106ae565b9050919050565b60006106fc8261040c565b91506107078361040c565b925082820390508181111561071f5761071e610582565b5b92915050565b60006107308261040c565b915061073b8361040c565b925082820190508082111561075357610752610582565b5b92915050565b7f4f6e6c7920746865206f776e65722063616e207265746f636b2076656e64696e60008201527f67206d616368696e650000000000000000000000000000000000000000000000602082015250565b60006107b56029836105e2565b91506107c082610759565b604082019050919050565b600060208201905081810360008301526107e4816107a8565b905091905056fea2646970667358221220811fce724631071e26924c56c2f2f85c97df6032b375a6f055ab2080ea1d32f964736f6c63430008180033",
  "linkReferences": {},
  "deployedLinkReferences": {}
}